{
  "contractName": "Whitelist",
  "abi": [
    {
      "inputs": [
        {
          "internalType": "string",
          "name": "message",
          "type": "string"
        }
      ],
      "name": "Antisuicide",
      "type": "error"
    },
    {
      "anonymous": false,
      "inputs": [
        {
          "indexed": false,
          "internalType": "address",
          "name": "account",
          "type": "address"
        }
      ],
      "name": "AddToWhitelist",
      "type": "event"
    },
    {
      "anonymous": false,
      "inputs": [
        {
          "indexed": false,
          "internalType": "address",
          "name": "account",
          "type": "address"
        }
      ],
      "name": "RemoveFromWhitelist",
      "type": "event"
    },
    {
      "inputs": [
        {
          "internalType": "address",
          "name": "",
          "type": "address"
        }
      ],
      "name": "whitelisted",
      "outputs": [
        {
          "internalType": "bool",
          "name": "",
          "type": "bool"
        }
      ],
      "stateMutability": "view",
      "type": "function"
    },
    {
      "inputs": [
        {
          "internalType": "address",
          "name": "account",
          "type": "address"
        }
      ],
      "name": "addToWhitelist",
      "outputs": [],
      "stateMutability": "nonpayable",
      "type": "function"
    },
    {
      "inputs": [
        {
          "internalType": "address",
          "name": "account",
          "type": "address"
        }
      ],
      "name": "removeFromWhitelist",
      "outputs": [],
      "stateMutability": "nonpayable",
      "type": "function"
    }
  ],
  "bytecode": "0x608060405234801561001057600080fd5b50610929806100206000396000f3fe608060405234801561001057600080fd5b50600436106100415760003560e01c80638ab1d68114610046578063d936547e14610062578063e43252d714610092575b600080fd5b610060600480360381019061005b919061052d565b6100ae565b005b61007c6004803603810190610077919061052d565b6102d2565b6040516100899190610642565b60405180910390f35b6100ac60048036038101906100a7919061052d565b6102f2565b005b600115156000803373ffffffffffffffffffffffffffffffffffffffff1673ffffffffffffffffffffffffffffffffffffffff16815260200190815260200160002060009054906101000a900460ff16151514610140576040517f08c379a00000000000000000000000000000000000000000000000000000000081526004016101379061069d565b60405180910390fd5b600115156000808373ffffffffffffffffffffffffffffffffffffffff1673ffffffffffffffffffffffffffffffffffffffff16815260200190815260200160002060009054906101000a900460ff161515146101d2576040517f08c379a00000000000000000000000000000000000000000000000000000000081526004016101c99061065d565b60405180910390fd5b8073ffffffffffffffffffffffffffffffffffffffff163373ffffffffffffffffffffffffffffffffffffffff161415610241576040517fdcb916d80000000000000000000000000000000000000000000000000000000081526004016102389061067d565b60405180910390fd5b60008060008373ffffffffffffffffffffffffffffffffffffffff1673ffffffffffffffffffffffffffffffffffffffff16815260200190815260200160002060006101000a81548160ff0219169083151502179055507f1f756c8b089af6b33ee121fee8badac2553a2fa89c0575ea91ff8792617746c2816040516102c79190610627565b60405180910390a150565b60006020528060005260406000206000915054906101000a900460ff1681565b600115156000803373ffffffffffffffffffffffffffffffffffffffff1673ffffffffffffffffffffffffffffffffffffffff16815260200190815260200160002060009054906101000a900460ff16151514610384576040517f08c379a000000000000000000000000000000000000000000000000000000000815260040161037b9061069d565b60405180910390fd5b600115156000808373ffffffffffffffffffffffffffffffffffffffff1673ffffffffffffffffffffffffffffffffffffffff16815260200190815260200160002060009054906101000a900460ff1615151415610417576040517f08c379a000000000000000000000000000000000000000000000000000000000815260040161040e906106bd565b60405180910390fd5b600073ffffffffffffffffffffffffffffffffffffffff168173ffffffffffffffffffffffffffffffffffffffff161415610487576040517f08c379a000000000000000000000000000000000000000000000000000000000815260040161047e906106dd565b60405180910390fd5b60016000808373ffffffffffffffffffffffffffffffffffffffff1673ffffffffffffffffffffffffffffffffffffffff16815260200190815260200160002060006101000a81548160ff0219169083151502179055507f75b2135d1c8c3519f3c09c43fe6527089ef09f40c7981ebf0ed46e79e79032c78160405161050d9190610627565b60405180910390a150565b600081359050610527816108dc565b92915050565b6000602082840312156105435761054261074c565b5b600061055184828501610518565b91505092915050565b6105638161070e565b82525050565b61057281610720565b82525050565b6000610585602c836106fd565b915061059082610751565b604082019050919050565b60006105a86025836106fd565b91506105b3826107a0565b604082019050919050565b60006105cb6032836106fd565b91506105d6826107ef565b604082019050919050565b60006105ee602c836106fd565b91506105f98261083e565b604082019050919050565b60006106116022836106fd565b915061061c8261088d565b604082019050919050565b600060208201905061063c600083018461055a565b92915050565b60006020820190506106576000830184610569565b92915050565b6000602082019050818103600083015261067681610578565b9050919050565b600060208201905081810360008301526106968161059b565b9050919050565b600060208201905081810360008301526106b6816105be565b9050919050565b600060208201905081810360008301526106d6816105e1565b9050919050565b600060208201905081810360008301526106f681610604565b9050919050565b600082825260208201905092915050565b60006107198261072c565b9050919050565b60008115159050919050565b600073ffffffffffffffffffffffffffffffffffffffff82169050919050565b600080fd5b7f57686974656c6973743a2074686973206163636f756e7420776173206e6f742060008201527f696e2077686974656c6973740000000000000000000000000000000000000000602082015250565b7f57686974656c6973743a20796f752063616e6e6f742072656d6f766520796f7560008201527f7273656c66000000000000000000000000000000000000000000000000000000602082015250565b7f57686974656c6973743a206f6e6c792077686974656c69737465642063616e2060008201527f646f2074686973206f7065726174696f6e210000000000000000000000000000602082015250565b7f57686974656c6973743a2074686973206163636f756e7420616c72656164792060008201527f696e2077686974656c6973740000000000000000000000000000000000000000602082015250565b7f57686974656c6973743a2063616e6e6f7420616464207a65726f20616464726560008201527f7373000000000000000000000000000000000000000000000000000000000000602082015250565b6108e58161070e565b81146108f057600080fd5b5056fea2646970667358221220e174b8746cc9b66ec20b3806c95f5b94a8ef1acc511fa95758bc525b6012868964736f6c63430008070033",
  "immutableReferences": {},
  "source": "// SPDX-License-Identifier: MIT\r\npragma solidity ^0.8.0;\r\n\r\nimport \"./IWhitelisted.sol\";\r\n\r\ncontract Whitelist is IWhitelisted\r\n{\r\n    error Antisuicide(string message);\r\n\r\n    mapping(address => bool) public whitelisted;\r\n    \r\n\r\n    function addToWhitelist(address account) public onlyWhitelisted\r\n    {\r\n        require(whitelisted[account] != true, \"Whitelist: this account already in whitelist\");\r\n        require(account != address(0), \"Whitelist: cannot add zero address\");\r\n\r\n        whitelisted[account] = true;\r\n        emit AddToWhitelist(account);\r\n    }\r\n\r\n    function removeFromWhitelist(address account) public onlyWhitelisted\r\n    {\r\n        require(whitelisted[account] == true, \"Whitelist: this account was not in whitelist\");\r\n        \r\n        if(msg.sender == account)\r\n        {\r\n            revert Antisuicide(\"Whitelist: you cannot remove yourself\");\r\n        }\r\n\r\n        whitelisted[account] = false;       \r\n        emit RemoveFromWhitelist(account);\r\n    }\r\n\r\n    modifier onlyWhitelisted()\r\n    {\r\n        require(whitelisted[msg.sender] == true, \"Whitelist: only whitelisted can do this operation!\");\r\n        _;\r\n    }\r\n}",
  "sourcePath": "C:\\Users\\User\\Desktop\\Solidity\\InternToken\\token\\InternalToken\\Whitelist.sol",
  "compiler": {
    "name": "solc",
    "version": "0.8.7+commit.e28d00a7.Emscripten.clang"
  },
  "schemaVersion": "3.4.3",
  "updatedAt": "2021-10-02T12:14:27.784Z",
  "devdoc": {
    "kind": "dev",
    "methods": {},
    "version": 1
  },
  "userdoc": {
    "kind": "user",
    "methods": {},
    "version": 1
  }
}